root@lamponubuntu2004-s-1vcpu-1gb-tor1-01:~# tcpdump -XX -i eth0
tcpdump: verbose output suppressed, use -v or -vv for full protocol decode
listening on eth0, link-type EN10MB (Ethernet), capture size 262144 bytes
18:43:24.163715 IP lamponubuntu2004-s-1vcpu-1gb-tor1-01.ssh > bras-base-toroon0560w-grc-73-184-146-17-164.dsl.bell.ca.36152: Flags [P.], seq 3767772589:3767772697, ack 1609532073, win 501, options [nop,nop,TS val 844070780 ecr 3768194240], length 108
	0x0000:  fe00 0000 0101 4614 0054 0c50 0800 4510  ......F..T.P..E.
	0x0010:  00a0 68e9 4000 4006 44f0 9fcb 226d b892  ..h.@.@.D..."m..
	0x0020:  11a4 0016 8d38 e093 a5ad 5fef 82a9 8018  .....8...._.....
	0x0030:  01f5 8d01 0000 0101 080a 324f 7f7c e09a  ..........2O.|..
	0x0040:  14c0 823d aaa2 dc1e 5638 15b5 34ee 82c5  ...=....V8..4...
	0x0050:  c062 8a76 c493 867b 818a 1e8f 50de f881  .b.v...{....P...
	0x0060:  5898 e933 4938 ead9 eeee 70d5 59aa c372  X..3I8....p.Y..r
	0x0070:  df4b 9406 2d27 035e 6ec7 9ce1 4b64 902a  .K..-'.^n...Kd.*
	0x0080:  320c 4461 c1f7 252c 77ae 06b9 794e 37b2  2.Da..%,w...yN7.
	0x0090:  61a7 548b a24e 5674 1ed0 5950 ea40 1430  a.T..NVt..YP.@.0
	0x00a0:  f947 3923 e469 af89 8559 04e8 241e       .G9#.i...Y..$.
18:43:24.163903 IP lamponubuntu2004-s-1vcpu-1gb-tor1-01.ssh > bras-base-toroon0560w-grc-73-184-146-17-164.dsl.bell.ca.36152: Flags [P.], seq 108:252, ack 1, win 501, options [nop,nop,TS val 844070780 ecr 3768194240], length 144
	0x0000:  fe00 0000 0101 4614 0054 0c50 0800 4510  ......F..T.P..E.
	0x0010:  00c4 68ea 4000 4006 44cb 9fcb 226d b892  ..h.@.@.D..."m..
	0x0020:  11a4 0016 8d38 e093 a619 5fef 82a9 8018  .....8...._.....
	0x0030:  01f5 8d25 0000 0101 080a 324f 7f7c e09a  ...%......2O.|..
	0x0040:  14c0 976c f8da 94b9 2f2b dcaf c0ad 3de7  ...l..../+....=.
	0x0050:  9dbe 55b9 01fc 0800 be49 a4dd 9982 d022  ..U......I....."
	0x0060:  676e 2d5a 16c2 76af a878 a4af 00b9 fa68  gn-Z..v..x.....h
	0x0070:  c25f 94a7 f82e 7dcd 48f6 59b3 8a2c e9f5  ._....}.H.Y..,..
	0x0080:  14ae 3f9d 3200 a101 ca15 ee3b 43d8 6ef5  ..?.2......;C.n.
	0x0090:  d712 a553 60d0 84f2 0b98 0219 d8d2 b6c4  ...S`...........
	0x00a0:  8100 3bd5 0f89 49f3 b22a 187c 682f 0ae4  ..;...I..*.|h/..
	0x00b0:  908b 95ee e19c 813f cf9b da08 6770 2257  .......?....gp"W
	0x00c0:  4424 6b04 dd2f b6dd 12c0 3019 807e 5d1b  D$k../....0..~].
	0x00d0:  9082                                     ..
18:43:24.164003 IP lamponubuntu2004-s-1vcpu-1gb-tor1-01.ssh > bras-base-toroon0560w-grc-73-184-146-17-164.dsl.bell.ca.36152: Flags [P.], seq 252:288, ack 1, win 501, options [nop,nop,TS val 844070780 ecr 3768194240], length 36
	0x0000:  fe00 0000 0101 4614 0054 0c50 0800 4510  ......F..T.P..E.
	0x0010:  0058 68eb 4000 4006 4536 9fcb 226d b892  .Xh.@.@.E6.."m..
	0x0020:  11a4 0016 8d38 e093 a6a9 5fef 82a9 8018  .....8...._.....
	0x0030:  01f5 8cb9 0000 0101 080a 324f 7f7c e09a  ..........2O.|..
	0x0040:  14c0 d449 62dc 3c8b 1167 139a 7132 360d  ...Ib.<..g..q26.
	0x0050:  a372 83b6 5f1d e93b 0a1b b863 4043 87fc  .r.._..;...c@C..
	0x0060:  fcfe 2c41 9899                           ..,A..
18:43:24.165712 IP lamponubuntu2004-s-1vcpu-1gb-tor1-01.44824 > 67.207.67.2.domain: 31105+ [1au] PTR? 164.17.146.184.in-addr.arpa. (56)
	0x0000:  fe00 0000 0101 4614 0054 0c50 0800 4500  ......F..T.P..E.
	0x0010:  0054 dd54 4000 4011 143b 9fcb 226d 43cf  .T.T@.@..;.."mC.
	0x0020:  4302 af18 0035 0040 495b 7981 0100 0001  C....5.@I[y.....
	0x0030:  0000 0000 0001 0331 3634 0231 3703 3134  .......164.17.14
	0x0040:  3603 3138 3407 696e 2d61 6464 7204 6172  6.184.in-addr.ar
	0x0050:  7061 0000 0c00 0100 0029 0200 0000 0000  pa.......)......
	0x0060:  0000                                     ..
18:43:24.165922 IP lamponubuntu2004-s-1vcpu-1gb-tor1-01.56681 > 67.207.67.2.domain: 10397+ [1au] PTR? 164.17.146.184.in-addr.arpa. (56)
	0x0000:  fe00 0000 0101 4614 0054 0c50 0800 4500  ......F..T.P..E.
	0x0010:  0054 dd55 4000 4011 143a 9fcb 226d 43cf  .T.U@.@..:.."mC.
	0x0020:  4302 dd69 0035 0040 495b 289d 0100 0001  C..i.5.@I[(.....
	0x0030:  0000 0000 0001 0331 3634 0231 3703 3134  .......164.17.14
	0x0040:  3603 3138 3407 696e 2d61 6464 7204 6172  6.184.in-addr.ar
	0x0050:  7061 0000 0c00 0100 0029 0200 0000 0000  pa.......)......
	0x0060:  0000                                     ..
18:43:24.166132 IP 67.207.67.2.domain > lamponubuntu2004-s-1vcpu-1gb-tor1-01.44824: 31105 1/0/1 PTR bras-base-toroon0560w-grc-73-184-146-17-164.dsl.bell.ca. (125)
	0x0000:  4614 0054 0c50 fe00 0000 0101 0800 4500  F..T.P........E.
	0x0010:  0099 882a 4000 3f11 6a20 43cf 4302 9fcb  ...*@.?.j.C.C...
	0x0020:  226d 0035 af18 0085 be7f 7981 8180 0001  "m.5......y.....
	0x0030:  0001 0000 0001 0331 3634 0231 3703 3134  .......164.17.14
	0x0040:  3603 3138 3407 696e 2d61 6464 7204 6172  6.184.in-addr.ar
	0x0050:  7061 0000 0c00 01c0 0c00 0c00 0100 0150  pa.............P
	0x0060:  c400 392b 6272 6173 2d62 6173 652d 746f  ..9+bras-base-to
	0x0070:  726f 6f6e 3035 3630 772d 6772 632d 3733  roon0560w-grc-73
	0x0080:  2d31 3834 2d31 3436 2d31 372d 3136 3403  -184-146-17-164.
	0x0090:  6473 6c04 6265 6c6c 0263 6100 0000 2902  dsl.bell.ca...).
	0x00a0:  0000 0000 0000 00                        .......
18:43:24.166205 IP lamponubuntu2004-s-1vcpu-1gb-tor1-01 > 67.207.67.2: ICMP lamponubuntu2004-s-1vcpu-1gb-tor1-01 udp port 44824 unreachable, length 161
	0x0000:  fe00 0000 0101 4614 0054 0c50 0800 45c0  ......F..T.P..E.
	0x0010:  00b5 20fa 0000 4001 0f85 9fcb 226d 43cf  ......@....."mC.
	0x0020:  4302 0303 469d 0000 0000 4500 0099 882a  C...F.....E....*
	0x0030:  4000 3f11 6a20 43cf 4302 9fcb 226d 0035  @.?.j.C.C..."m.5
	0x0040:  af18 0085 be7f 7981 8180 0001 0001 0000  ......y.........
	0x0050:  0001 0331 3634 0231 3703 3134 3603 3138  ...164.17.146.18
	0x0060:  3407 696e 2d61 6464 7204 6172 7061 0000  4.in-addr.arpa..
	0x0070:  0c00 01c0 0c00 0c00 0100 0150 c400 392b  ...........P..9+
	0x0080:  6272 6173 2d62 6173 652d 746f 726f 6f6e  bras-base-toroon
	0x0090:  3035 3630 772d 6772 632d 3733 2d31 3834  0560w-grc-73-184
	0x00a0:  2d31 3436 2d31 372d 3136 3403 6473 6c04  -146-17-164.dsl.
	0x00b0:  6265 6c6c 0263 6100 0000 2902 0000 0000  bell.ca...).....
	0x00c0:  0000 00                                  ...
18:43:24.166241 IP 67.207.67.2.domain > lamponubuntu2004-s-1vcpu-1gb-tor1-01.56681: 10397 1/0/1 PTR bras-base-toroon0560w-grc-73-184-146-17-164.dsl.bell.ca. (125)
	0x0000:  4614 0054 0c50 fe00 0000 0101 0800 4500  F..T.P........E.
	0x0010:  0099 882b 4000 3f11 6a1f 43cf 4302 9fcb  ...+@.?.j.C.C...
	0x0020:  226d 0035 dd69 0085 e112 289d 8180 0001  "m.5.i....(.....
	0x0030:  0001 0000 0001 0331 3634 0231 3703 3134  .......164.17.14
	0x0040:  3603 3138 3407 696e 2d61 6464 7204 6172  6.184.in-addr.ar
	0x0050:  7061 0000 0c00 01c0 0c00 0c00 0100 0150  pa.............P
	0x0060:  c400 392b 6272 6173 2d62 6173 652d 746f  ..9+bras-base-to
	0x0070:  726f 6f6e 3035 3630 772d 6772 632d 3733  roon0560w-grc-73
	0x0080:  2d31 3834 2d31 3436 2d31 372d 3136 3403  -184-146-17-164.
	0x0090:  6473 6c04 6265 6c6c 0263 6100 0000 2902  dsl.bell.ca...).
	0x00a0:  0000 0000 0000 00                        .......
18:43:24.166272 IP lamponubuntu2004-s-1vcpu-1gb-tor1-01 > 67.207.67.2: ICMP lamponubuntu2004-s-1vcpu-1gb-tor1-01 udp port 56681 unreachable, length 161
	0x0000:  fe00 0000 0101 4614 0054 0c50 0800 45c0  ......F..T.P..E.
	0x0010:  00b5 20fb 0000 4001 0f84 9fcb 226d 43cf  ......@....."mC.
	0x0020:  4302 0303 469d 0000 0000 4500 0099 882b  C...F.....E....+
	0x0030:  4000 3f11 6a1f 43cf 4302 9fcb 226d 0035  @.?.j.C.C..."m.5
	0x0040:  dd69 0085 e112 289d 8180 0001 0001 0000  .i....(.........
	0x0050:  0001 0331 3634 0231 3703 3134 3603 3138  ...164.17.146.18
	0x0060:  3407 696e 2d61 6464 7204 6172 7061 0000  4.in-addr.arpa..
	0x0070:  0c00 01c0 0c00 0c00 0100 0150 c400 392b  ...........P..9+
	0x0080:  6272 6173 2d62 6173 652d 746f 726f 6f6e  bras-base-toroon
	0x0090:  3035 3630 772d 6772 632d 3733 2d31 3834  0560w-grc-73-184
	0x00a0:  2d31 3436 2d31 372d 3136 3403 6473 6c04  -146-17-164.dsl.
	0x00b0:  6265 6c6c 0263 6100 0000 2902 0000 0000  bell.ca...).....
	0x00c0:  0000 00                                  ...
18:43:24.167248 IP bras-base-toroon0560w-grc-73-184-146-17-164.dsl.bell.ca.36152 > lamponubuntu2004-s-1vcpu-1gb-tor1-01.ssh: Flags [.], ack 108, win 7555, options [nop,nop,TS val 3768194279 ecr 844070780], length 0
	0x0000:  4614 0054 0c50 fe00 0000 0101 0800 4500  F..T.P........E.
	0x0010:  0034 c6c8 4000 3506 f28c b892 11a4 9fcb  .4..@.5.........
	0x0020:  226d 8d38 0016 5fef 82a9 e093 a619 8010  "m.8.._.........
	0x0030:  1d83 2ee9 0000 0101 080a e09a 14e7 324f  ..............2O
	0x0040:  7f7c                                     .|
18:43:24.167248 IP bras-base-toroon0560w-grc-73-184-146-17-164.dsl.bell.ca.36152 > lamponubuntu2004-s-1vcpu-1gb-tor1-01.ssh: Flags [.], ack 252, win 7554, options [nop,nop,TS val 3768194279 ecr 844070780], length 0
	0x0000:  4614 0054 0c50 fe00 0000 0101 0800 4500  F..T.P........E.
	0x0010:  0034 c6c9 4000 3506 f28b b892 11a4 9fcb  .4..@.5.........
	0x0020:  226d 8d38 0016 5fef 82a9 e093 a6a9 8010  "m.8.._.........
	0x0030:  1d82 2e5a 0000 0101 080a e09a 14e7 324f  ...Z..........2O
	0x0040:  7f7c                                     .|
18:43:24.167248 IP bras-base-toroon0560w-grc-73-184-146-17-164.dsl.bell.ca.36152 > lamponubuntu2004-s-1vcpu-1gb-tor1-01.ssh: Flags [.], ack 288, win 7554, options [nop,nop,TS val 3768194279 ecr 844070780], length 0
	0x0000:  4614 0054 0c50 fe00 0000 0101 0800 4500  F..T.P........E.
	0x0010:  0034 c6ca 4000 3506 f28a b892 11a4 9fcb  .4..@.5.........
	0x0020:  226d 8d38 0016 5fef 82a9 e093 a6cd 8010  "m.8.._.........
	0x0030:  1d82 2e36 0000 0101 080a e09a 14e7 324f  ...6..........2O
	0x0040:  7f7c                                     .|
18:43:24.167704 IP lamponubuntu2004-s-1vcpu-1gb-tor1-01.56659 > 67.207.67.2.domain: 61278+ [1au] PTR? 109.34.203.159.in-addr.arpa. (56)
	0x0000:  fe00 0000 0101 4614 0054 0c50 0800 4500  ......F..T.P..E.
	0x0010:  0054 dd56 4000 4011 1439 9fcb 226d 43cf  .T.V@.@..9.."mC.
	0x0020:  4302 dd53 0035 0040 495b ef5e 0100 0001  C..S.5.@I[.^....
	0x0030:  0000 0000 0001 0331 3039 0233 3403 3230  .......109.34.20
	0x0040:  3303 3135 3907 696e 2d61 6464 7204 6172  3.159.in-addr.ar
	0x0050:  7061 0000 0c00 0100 0029 0200 0000 0000  pa.......)......
	0x0060:  0000                                     ..
18:43:24.167881 IP lamponubuntu2004-s-1vcpu-1gb-tor1-01.57116 > 67.207.67.2.domain: 21612+ [1au] PTR? 109.34.203.159.in-addr.arpa. (56)
	0x0000:  fe00 0000 0101 4614 0054 0c50 0800 4500  ......F..T.P..E.
	0x0010:  0054 dd57 4000 4011 1438 9fcb 226d 43cf  .T.W@.@..8.."mC.
	0x0020:  4302 df1c 0035 0040 495b 546c 0100 0001  C....5.@I[Tl....
	0x0030:  0000 0000 0001 0331 3039 0233 3403 3230  .......109.34.20
	0x0040:  3303 3135 3907 696e 2d61 6464 7204 6172  3.159.in-addr.ar
	0x0050:  7061 0000 0c00 0100 0029 0200 0000 0000  pa.......)......
	0x0060:  0000                                     ..
18:43:24.168107 IP 67.207.67.2.domain > lamponubuntu2004-s-1vcpu-1gb-tor1-01.56659: 61278 NXDomain 0/1/1 (123)
	0x0000:  4614 0054 0c50 fe00 0000 0101 0800 4500  F..T.P........E.
	0x0010:  0097 882c 4000 3f11 6a20 43cf 4302 9fcb  ...,@.?.j.C.C...
	0x0020:  226d 0035 dd53 0083 2782 ef5e 8183 0001  "m.5.S..'..^....
	0x0030:  0000 0001 0001 0331 3039 0233 3403 3230  .......109.34.20
	0x0040:  3303 3135 3907 696e 2d61 6464 7204 6172  3.159.in-addr.ar
	0x0050:  7061 0000 0c00 01c0 1000 0600 0100 0006  pa..............
	0x0060:  4c00 3703 6e73 310c 6469 6769 7461 6c6f  L.7.ns1.digitalo
	0x0070:  6365 616e 0363 6f6d 000a 686f 7374 6d61  cean.com..hostma
	0x0080:  7374 6572 c010 61fc b529 0000 2a30 0000  ster..a..)..*0..
	0x0090:  0e10 0009 3a80 0000 0708 0000 2902 0000  ....:.......)...
	0x00a0:  0000 0000 00                             .....
18:43:24.168169 IP lamponubuntu2004-s-1vcpu-1gb-tor1-01.33880 > 67.207.67.2.domain: 23654+ [1au] PTR? 109.34.203.159.in-addr.arpa. (56)
	0x0000:  fe00 0000 0101 4614 0054 0c50 0800 4500  ......F..T.P..E.
	0x0010:  0054 dd58 4000 4011 1437 9fcb 226d 43cf  .T.X@.@..7.."mC.
	0x0020:  4302 8458 0035 0040 495b 5c66 0100 0001  C..X.5.@I[\f....
	0x0030:  0000 0000 0001 0331 3039 0233 3403 3230  .......109.34.20
	0x0040:  3303 3135 3907 696e 2d61 6464 7204 6172  3.159.in-addr.ar
	0x0050:  7061 0000 0c00 0100 0029 0200 0000 0000  pa.......)......
	0x0060:  0000                                     ..
18:43:24.168217 IP 67.207.67.2.domain > lamponubuntu2004-s-1vcpu-1gb-tor1-01.57116: 21612 NXDomain 0/1/1 (123)
	0x0000:  4614 0054 0c50 fe00 0000 0101 0800 4500  F..T.P........E.
	0x0010:  0097 882d 4000 3f11 6a1f 43cf 4302 9fcb  ...-@.?.j.C.C...
	0x0020:  226d 0035 df1c 0083 c0ab 546c 8183 0001  "m.5......Tl....
	0x0030:  0000 0001 0001 0331 3039 0233 3403 3230  .......109.34.20
	0x0040:  3303 3135 3907 696e 2d61 6464 7204 6172  3.159.in-addr.ar
	0x0050:  7061 0000 0c00 01c0 1000 0600 0100 0006  pa..............
	0x0060:  4c00 3703 6e73 310c 6469 6769 7461 6c6f  L.7.ns1.digitalo
	0x0070:  6365 616e 0363 6f6d 000a 686f 7374 6d61  cean.com..hostma
	0x0080:  7374 6572 c010 61fc b529 0000 2a30 0000  ster..a..)..*0..
	0x0090:  0e10 0009 3a80 0000 0708 0000 2902 0000  ....:.......)...
	0x00a0:  0000 0000 00                             .....
18:43:24.168467 IP 67.207.67.2.domain > lamponubuntu2004-s-1vcpu-1gb-tor1-01.33880: 23654 NXDomain 0/1/1 (123)
	0x0000:  4614 0054 0c50 fe00 0000 0101 0800 4500  F..T.P........E.
	0x0010:  0097 882e 4000 3f11 6a1e 43cf 4302 9fcb  ....@.?.j.C.C...
	0x0020:  226d 0035 8458 0083 1376 5c66 8183 0001  "m.5.X...v\f....
	0x0030:  0000 0001 0001 0331 3039 0233 3403 3230  .......109.34.20
	0x0040:  3303 3135 3907 696e 2d61 6464 7204 6172  3.159.in-addr.ar
	0x0050:  7061 0000 0c00 01c0 1000 0600 0100 0006  pa..............
	0x0060:  4c00 3703 6e73 310c 6469 6769 7461 6c6f  L.7.ns1.digitalo
	0x0070:  6365 616e 0363 6f6d 000a 686f 7374 6d61  cean.com..hostma
	0x0080:  7374 6572 c010 61fc b529 0000 2a30 0000  ster..a..)..*0..
	0x0090:  0e10 0009 3a80 0000 0708 0000 2902 0000  ....:.......)...
	0x00a0:  0000 0000 00                             .....
18:43:24.168642 IP lamponubuntu2004-s-1vcpu-1gb-tor1-01.56659 > 67.207.67.2.domain: 61278+ PTR? 109.34.203.159.in-addr.arpa. (45)
	0x0000:  fe00 0000 0101 4614 0054 0c50 0800 4500  ......F..T.P..E.
	0x0010:  0049 dd59 4000 4011 1441 9fcb 226d 43cf  .I.Y@.@..A.."mC.
	0x0020:  4302 dd53 0035 0035 4950 ef5e 0100 0001  C..S.5.5IP.^....
	0x0030:  0000 0000 0000 0331 3039 0233 3403 3230  .......109.34.20
	0x0040:  3303 3135 3907 696e 2d61 6464 7204 6172  3.159.in-addr.ar
	0x0050:  7061 0000 0c00 01                        pa.....
18:43:24.168761 IP lamponubuntu2004-s-1vcpu-1gb-tor1-01.57116 > 67.207.67.2.domain: 21612+ PTR? 109.34.203.159.in-addr.arpa. (45)
	0x0000:  fe00 0000 0101 4614 0054 0c50 0800 4500  ......F..T.P..E.
	0x0010:  0049 dd5a 4000 4011 1440 9fcb 226d 43cf  .I.Z@.@..@.."mC.
	0x0020:  4302 df1c 0035 0035 4950 546c 0100 0001  C....5.5IPTl....
	0x0030:  0000 0000 0000 0331 3039 0233 3403 3230  .......109.34.20
	0x0040:  3303 3135 3907 696e 2d61 6464 7204 6172  3.159.in-addr.ar
	0x0050:  7061 0000 0c00 01                        pa.....
18:43:24.168824 IP 67.207.67.2.domain > lamponubuntu2004-s-1vcpu-1gb-tor1-01.56659: 61278 NXDomain 0/1/0 (112)
	0x0000:  4614 0054 0c50 fe00 0000 0101 0800 4500  F..T.P........E.
	0x0010:  008c 882f 4000 3f11 6a28 43cf 4302 9fcb  .../@.?.j(C.C...
	0x0020:  226d 0035 dd53 0078 509b ef5e 8183 0001  "m.5.S.xP..^....
	0x0030:  0000 0001 0000 0331 3039 0233 3403 3230  .......109.34.20
	0x0040:  3303 3135 3907 696e 2d61 6464 7204 6172  3.159.in-addr.ar
	0x0050:  7061 0000 0c00 01c0 1000 0600 0100 0006  pa..............
	0x0060:  4c00 3703 6e73 310c 6469 6769 7461 6c6f  L.7.ns1.digitalo
	0x0070:  6365 616e 0363 6f6d 000a 686f 7374 6d61  cean.com..hostma
	0x0080:  7374 6572 c010 61fc b529 0000 2a30 0000  ster..a..)..*0..
	0x0090:  0e10 0009 3a80 0000 0708                 ....:.....
18:43:24.168890 IP lamponubuntu2004-s-1vcpu-1gb-tor1-01.33880 > 67.207.67.2.domain: 23654+ PTR? 109.34.203.159.in-addr.arpa. (45)
	0x0000:  fe00 0000 0101 4614 0054 0c50 0800 4500  ......F..T.P..E.
	0x0010:  0049 dd5b 4000 4011 143f 9fcb 226d 43cf  .I.[@.@..?.."mC.
	0x0020:  4302 8458 0035 0035 4950 5c66 0100 0001  C..X.5.5IP\f....
	0x0030:  0000 0000 0000 0331 3039 0233 3403 3230  .......109.34.20
	0x0040:  3303 3135 3907 696e 2d61 6464 7204 6172  3.159.in-addr.ar
	0x0050:  7061 0000 0c00 01                        pa.....
18:43:24.169019 IP 67.207.67.2.domain > lamponubuntu2004-s-1vcpu-1gb-tor1-01.57116: 21612 NXDomain 0/1/0 (112)
	0x0000:  4614 0054 0c50 fe00 0000 0101 0800 4500  F..T.P........E.
	0x0010:  008c 8830 4000 3f11 6a27 43cf 4302 9fcb  ...0@.?.j'C.C...
	0x0020:  226d 0035 df1c 0078 e9c4 546c 8183 0001  "m.5...x..Tl....
	0x0030:  0000 0001 0000 0331 3039 0233 3403 3230  .......109.34.20
	0x0040:  3303 3135 3907 696e 2d61 6464 7204 6172  3.159.in-addr.ar
	0x0050:  7061 0000 0c00 01c0 1000 0600 0100 0006  pa..............
	0x0060:  4c00 3703 6e73 310c 6469 6769 7461 6c6f  L.7.ns1.digitalo
	0x0070:  6365 616e 0363 6f6d 000a 686f 7374 6d61  cean.com..hostma
	0x0080:  7374 6572 c010 61fc b529 0000 2a30 0000  ster..a..)..*0..
	0x0090:  0e10 0009 3a80 0000 0708                 ....:.....
18:43:24.169227 IP 67.207.67.2.domain > lamponubuntu2004-s-1vcpu-1gb-tor1-01.33880: 23654 NXDomain 0/1/0 (112)
	0x0000:  4614 0054 0c50 fe00 0000 0101 0800 4500  F..T.P........E.
	0x0010:  008c 8831 4000 3f11 6a26 43cf 4302 9fcb  ...1@.?.j&C.C...
	0x0020:  226d 0035 8458 0078 3c8f 5c66 8183 0001  "m.5.X.x<.\f....
	0x0030:  0000 0001 0000 0331 3039 0233 3403 3230  .......109.34.20
	0x0040:  3303 3135 3907 696e 2d61 6464 7204 6172  3.159.in-addr.ar
	0x0050:  7061 0000 0c00 01c0 1000 0600 0100 0006  pa..............
	0x0060:  4c00 3703 6e73 310c 6469 6769 7461 6c6f  L.7.ns1.digitalo
	0x0070:  6365 616e 0363 6f6d 000a 686f 7374 6d61  cean.com..hostma
	0x0080:  7374 6572 c010 61fc b529 0000 2a30 0000  ster..a..)..*0..
	0x0090:  0e10 0009 3a80 0000 0708                 ....:.....
18:43:24.173502 IP lamponubuntu2004-s-1vcpu-1gb-tor1-01.ssh > bras-base-toroon0560w-grc-73-184-146-17-164.dsl.bell.ca.36152: Flags [P.], seq 288:3220, ack 1, win 501, options [nop,nop,TS val 844070789 ecr 3768194279], length 2932
	0x0000:  fe00 0000 0101 4614 0054 0c50 0800 4510  ......F..T.P..E.
	0x0010:  0ba8 68ec 4000 4006 39e5 9fcb 226d b892  ..h.@.@.9..."m..
	0x0020:  11a4 0016 8d38 e093 a6cd 5fef 82a9 8018  .....8...._.....
	0x0030:  01f5 9809 0000 0101 080a 324f 7f85 e09a  ..........2O....
	0x0040:  14e7 ed26 8a9e a5de 8d09 50f9 1639 8e46  ...&......P..9.F
	0x0050:  daf4 2669 1bfa 0884 a48e 97c6 0ef0 01cf  ..&i............
	0x0060:  9508 9488 52b9 5853 ab1a b221 fb70 ddfc  ....R.XS...!.p..
	0x0070:  f2c0 5239 b824 ed0e 170d 5ac7 91ee 4740  ..R9.$....Z...G@
	0x0080:  dda7 c49c 41fc 1546 7bdb dd61 33a4 8673  ....A..F{..a3..s
	0x0090:  c1d7 c1f4 5046 f1d8 958c f2be 7c0b c933  ....PF......|..3
	0x00a0:  488b 6de8 1ebe e72a c240 ac26 0e39 baab  H.m....*.@.&.9..
	0x00b0:  280b 6d09 e10b 22fe 64bd 6ac3 e4cf 7eb3  (.m...".d.j...~.
	0x00c0:  9991 9348 c435 3667 fa79 a245 5593 d572  ...H.56g.y.EU..r
	0x00d0:  e56c cd5d 0037 6f13 dfa9 cc8b 3827 a62f  .l.].7o.....8'./
	0x00e0:  e3b5 a4c0 9b73 e350 bb77 c50a 18df fa2a  .....s.P.w.....*
	0x00f0:  6d43 68a7 dc14 41ba 3529 79f0 e07a 888d  mCh...A.5)y..z..
	0x0100:  4f27 d77d de91 eb1c c7bf fd95 1cbf 5c33  O'.}..........\3
	0x0110:  2993 b4cc f80a c335 d0be ad3b aa6c 895e  )......5...;.l.^
	0x0120:  dd19 d9df 28a6 1cd8 c569 3a4b 595f e517  ....(....i:KY_..
	0x0130:  f321 1dd0 049d 252e a88e 5f4b 72ac 3a8f  .!....%..._Kr.:.
	0x0140:  1d68 f196 9855 a723 934b 5d1c c6ba 700a  .h...U.#.K]...p.
	0x0150:  7338 9993 cff7 b8d1 fc83 74db 9294 efed  s8........t.....
	0x0160:  42b2 6a4e fdab 7eb3 b00c 4c6b 288f 546a  B.jN..~...Lk(.Tj
	0x0170:  263d 69a3 b800 996a 41f6 d70f 81be f497  &=i....jA.......
	0x0180:  d570 adf5 05b1 8d9d 92bd 3b67 e0f3 b60d  .p........;g....
	0x0190:  2900 5165 da27 4980 eb76 f268 d057 f88d  ).Qe.'I..v.h.W..
	0x01a0:  609e 3269 b960 f859 0098 afeb 0c8b c256  `.2i.`.Y.......V
	0x01b0:  b2ff 8b81 f7fc c545 a8a5 ddd0 fb40 bf3e  .......E.....@.>
	0x01c0:  2c1c 6102 1ec9 c2b1 ff99 716b a8ae 8cbd  ,.a.......qk....
	0x01d0:  277e 60ef 47cf 7b4e bc17 32f1 4eab 3e54  '~`.G.{N..2.N.>T
	0x01e0:  37b4 8a11 0197 a658 e2b0 3173 333b a600  7......X..1s3;..
	0x01f0:  0b61 faf7 1a07 a124 8d7d 2b7b 0021 62e1  .a.....$.}+{.!b.
	0x0200:  665f c787 f83e f49d 3d93 2410 11f8 9408  f_...>..=.$.....
	0x0210:  d2e9 951c 7cf8 5571 8f9f 9433 5b77 67e6  ....|.Uq...3[wg.
	0x0220:  32e6 0350 bca3 c77b 2951 a120 f6c1 b0ef  2..P...{)Q......
	0x0230:  25cc 0b9e 639b 96fd 0eb5 8584 09c8 0d38  %...c..........8
	0x0240:  10ea 3aa8 105b 9994 22d7 e134 9289 5ebd  ..:..[.."..4..^.
	0x0250:  ed1a b6b8 e989 97a7 b4f6 7df2 f6af 31d0  ..........}...1.
	0x0260:  87e0 a85c fd70 3b60 2121 a234 86fa 6725  ...\.p;`!!.4..g%
	0x0270:  d389 0660 14eb 981a 57d8 e78b d8fd 5ddb  ...`....W.....].
	0x0280:  ef80 b39b 195d 5437 8d2a 1c4d 1738 0b7d  .....]T7.*.M.8.}
	0x0290:  4cdc c0c1 ed72 0729 54c4 29e0 2324 7035  L....r.)T.).#$p5
	0x02a0:  53bc fa41 7658 e7e8 d465 5d3a cc71 59b3  S..AvX...e]:.qY.
	0x02b0:  dec9 af85 e679 eef6 37bb b692 4848 3f5c  .....y..7...HH?\
	0x02c0:  0886 8c2e 6ae9 2de0 9fd9 45ad 5265 d8ac  ....j.-...E.Re..
	0x02d0:  071d f3e4 9e5e 611e 5db8 46ed 5573 29b5  .....^a.].F.Us).
	0x02e0:  1f09 8050 b653 f34c 3403 5f11 7d7c 5df9  ...P.S.L4._.}|].
	0x02f0:  4808 fbdc c7b6 0c53 dbc9 820a 00be 72ab  H......S......r.
	0x0300:  24d7 7c44 9ac9 2b4e 9b06 5e7b aac3 2407  $.|D..+N..^{..$.
	0x0310:  8f34 b44d c2ba c839 34f0 ecf3 156f ba9e  .4.M...94....o..
	0x0320:  e92d 67ac 70c0 8d9a ba91 39ce 9e63 db87  .-g.p.....9..c..
	0x0330:  6e41 2621 99d7 f8d7 11e1 dcac 8136 1ae6  nA&!.........6..
	0x0340:  0322 30ae 9376 69de 331d f344 d896 cc26  ."0..vi.3..D...&
	0x0350:  ad21 11c7 3f45 3730 7a07 158d 9c19 15b9  .!..?E70z.......
	0x0360:  7f74 c7f1 51ae 7e85 f837 99bb c7bd 1769  .t..Q.~..7.....i
	0x0370:  b977 b50a 85cc 9459 814b 0aa1 c1f8 8645  .w.....Y.K.....E
	0x0380:  de09 1f72 5dab 84b4 e724 61b1 a95b 38a9  ...r]....$a..[8.
	0x0390:  d757 1c25 8f13 af27 c6cf 7d4a b7f6 8db5  .W.%...'..}J....
	0x03a0:  3409 e536 e83a 05e5 e801 0260 8e53 2efe  4..6.:.....`.S..
	0x03b0:  0b68 5d8c 608e d24a 4b8d 9c52 ca10 eea8  .h].`..JK..R....
	0x03c0:  09ac 60a6 5015 3514 ff3a 1699 25a7 ef8e  ..`.P.5..:..%...
	0x03d0:  7061 a2cb bbf6 fe55 6a4b 517d e493 2308  pa.....UjKQ}..#.
	0x03e0:  4dae 1e53 aee7 3ef0 5859 01fd 233b d0fa  M..S..>.XY..#;..
	0x03f0:  9d17 f926 e502 5519 036c a0bc 49a4 8a2f  ...&..U..l..I../
	0x0400:  0581 596d 5cd7 0207 568d d536 a6ca e1e5  ..Ym\...V..6....
	0x0410:  f60f 322e 3361 e76a 2519 7a50 eadb 692a  ..2.3a.j%.zP..i*
	0x0420:  db46 59fe 5b06 4c32 1d87 7af8 ef0b 31f4  .FY.[.L2..z...1.
	0x0430:  8c8b 2e22 5673 1d76 7cff f667 7f72 108e  ..."Vs.v|..g.r..
	0x0440:  08c6 00d4 ee44 45a8 6bc0 5931 bd9f adf2  .....DE.k.Y1....
	0x0450:  6b16 e612 64f2 664f a031 9a5d 9a54 88ca  k...d.fO.1.].T..
	0x0460:  dce6 b907 c725 a0e1 eef4 95c1 4066 cd2a  .....%......@f.*
	0x0470:  df8a 355a c893 8d98 28ba 0c52 3d4f bd7c  ..5Z....(..R=O.|
	0x0480:  9baa e4cf 69c7 a876 d84e 00f2 5a02 f51d  ....i..v.N..Z...
	0x0490:  3b3d 37f2 fcc6 1013 7571 0464 df4d 4aaa  ;=7.....uq.d.MJ.
	0x04a0:  01eb 7df2 8848 1c46 87d7 c6ab 6b2f ec8e  ..}..H.F....k/..
	0x04b0:  0057 947b c4bc 10b3 981b c4e8 5b54 2f90  .W.{........[T/.
	0x04c0:  a65c d217 3d4f 8f1b 57e6 bdfd 77c8 c990  .\..=O..W...w...
	0x04d0:  7e5d aae3 bd27 9afa 4044 6e40 9dbf 1096  ~]...'..@Dn@....
	0x04e0:  ba2a 89ac ce04 16ab ddac f561 6cc5 c84a  .*.........al..J
	0x04f0:  9c53 0449 3e95 7b39 a250 5837 a334 6859  .S.I>.{9.PX7.4hY
	0x0500:  7228 0069 553c ab39 6fce ed50 52df 3045  r(.iU<.9o..PR.0E
	0x0510:  7ce4 b45e fd7a 0e15 4828 e68b fe3e b9cb  |..^.z..H(...>..
	0x0520:  c442 914b fed4 7c1a 64d2 33ef b2d4 2314  .B.K..|.d.3...#.
	0x0530:  0cde 7cc6 ab39 9353 e921 226e e29e 1529  ..|..9.S.!"n...)
	0x0540:  dbc9 a63a d60b 5b48 4330 699e f205 4632  ...:..[HC0i...F2
	0x0550:  1735 9c8e c4b5 7da4 41dc 0ec0 269b ecdc  .5....}.A...&...
	0x0560:  25ef c312 5f11 4298 0594 12ac d953 873e  %..._.B......S.>
	0x0570:  de42 a1bd 2a6a 508d 8583 ccf3 eeb6 b42d  .B..*jP........-
	0x0580:  445b efb6 1ed3 7b3c 4a86 a1cb ea23 d6e1  D[....{<J....#..
	0x0590:  95a4 76bb 46da 70e1 29e7 a837 253e 1c2a  ..v.F.p.)..7%>.*
	0x05a0:  d479 40ff dd06 e837 47b4 e566 145e be81  .y@....7G..f.^..
	0x05b0:  5e17 665f c68a 70bb 7566 f002 3c5a bbf5  ^.f_..p.uf..<Z..
	0x05c0:  e39b 434a 2033 4125 dc58 ac87 d96c afc4  ..CJ.3A%.X...l..
	0x05d0:  abd5 45bc 4f96 1d62 b0aa cab9 cb6c 9859  ..E.O..b.....l.Y
	0x05e0:  5f75 ac63 295d be9d 9f92 1964 8c53 7fa4  _u.c)].....d.S..
	0x05f0:  c132 ac2a 1906 f108 2d76 e03d 3f00 001b  .2.*....-v.=?...
	0x0600:  f44e 1982 e8f4 051b f8d0 ca2e 6618 e9e5  .N..........f...
	0x0610:  5d7a 7be9 fb95 9fa9 3d81 dd28 bed4 8e06  ]z{.....=..(....
	0x0620:  bacb 86c9 9b10 9372 0a5c 9d93 63f0 c976  .......r.\..c..v
	0x0630:  998a eb79 7499 1065 b6c7 039e 8efe 42b8  ...yt..e......B.
	0x0640:  70ec b05a ae35 8dc0 fddb aaad 9ca7 07cc  p..Z.5..........
	0x0650:  2113 cc1d c439 0f28 4141 1c7e 85c9 1596  !....9.(AA.~....
	0x0660:  4ff2 c6d9 fe46 7567 3bc2 1289 aa0c bf58  O....Fug;......X
	0x0670:  2663 68ff 7d4f 6f02 01e6 e250 2ee4 cf32  &ch.}Oo....P...2
	0x0680:  984f 6fbe e749 c66f 76aa 6ada 4ecb 1456  .Oo..I.ov.j.N..V
	0x0690:  94d3 5cda 0c15 e7f0 2dbd 7bb1 2d31 7785  ..\.....-.{.-1w.
	0x06a0:  7b3f 8238 1dbb 31e6 dbc2 869c a679 5f5f  {?.8..1......y__
	0x06b0:  8384 7be7 d210 4b90 554b 6e5c 8842 3c71  ..{...K.UKn\.B<q
	0x06c0:  2ab4 6287 054e cb72 f4bf fa3e 3989 b626  *.b..N.r...>9..&
	0x06d0:  038a 7e8f 3df8 9ff8 e09a 85e7 ba72 b2a4  ..~.=........r..
	0x06e0:  db59 343c 13ea f202 2b1b 0e8b 43ab d4ad  .Y4<....+...C...
	0x06f0:  49ef 28a4 6c9d 5479 6cb5 d8b6 7e8e 3c65  I.(.l.Tyl...~.<e
	0x0700:  3bb4 b1de 64d1 7c22 fed0 d2e2 9cb9 c3ab  ;...d.|"........
	0x0710:  1897 4ebc d040 f2d8 603a db9f 3492 abef  ..N..@..`:..4...
	0x0720:  9535 8ed1 15c7 8538 b8b0 4be5 e238 9a4b  .5.....8..K..8.K
	0x0730:  d26c b5c8 b57f 3f6b b14d 94eb edf4 7598  .l....?k.M....u.
	0x0740:  0446 b475 a8fd 2484 28b9 f099 568f cf27  .F.u..$.(...V..'
	0x0750:  44a6 58df 424c 2aa5 2500 f500 428c 2f8e  D.X.BL*.%...B./.
	0x0760:  4ee2 e565 3409 015b fb36 65c3 fb3d 3944  N..e4..[.6e..=9D
	0x0770:  66b0 b18d 4cfe 6bd6 aeac a0b2 1779 3cd4  f...L.k......y<.
	0x0780:  5d08 246c 4cdb a034 f34d fcce b750 32c7  ].$lL..4.M...P2.
	0x0790:  a61e bf76 7eb7 2c65 0257 7a87 43a9 44d7  ...v~.,e.Wz.C.D.
	0x07a0:  d9ba 7c8f a0da 2246 2357 b358 6bf3 87e1  ..|..."F#W.Xk...
	0x07b0:  6e27 7f3f c185 206e 34d6 fae1 8342 c4bc  n'.?...n4....B..
	0x07c0:  4c52 448f f551 1bc6 e5b0 c213 8cc6 488d  LRD..Q........H.
	0x07d0:  551c 0bf0 6172 65e9 a937 0058 96be 2e1a  U...are..7.X....
	0x07e0:  bec1 e11e 517f 9f36 f339 e2d2 d55a 3f69  ....Q..6.9...Z?i
	0x07f0:  c0a9 2f21 f201 c890 64bf 99cf a674 47be  ../!....d....tG.
	0x0800:  8c47 4cdc de48 aa48 a3ec cfb8 b56c e507  .GL..H.H.....l..
	0x0810:  a5a5 5e59 9316 7996 2978 7dff ca84 23e1  ..^Y..y.)x}...#.
	0x0820:  dabf ec35 d07a 6b51 e3b3 ed29 0176 ef6e  ...5.zkQ...).v.n
	0x0830:  a5ec 8504 9d7f 6d40 01ef 1cf4 a1c6 43cd  ......m@......C.
	0x0840:  a331 467a e8cc ae13 147a 138e 97fa f06d  .1Fz.....z.....m
	0x0850:  b23f 7806 4396 be48 b968 1894 a18f 1957  .?x.C..H.h.....W
	0x0860:  3f59 589c e54d f8ad 472b be2e c48c 57ea  ?YX..M..G+....W.
	0x0870:  3a0b af49 ac3d f870 8ae7 75da 2fdf 8104  :..I.=.p..u./...
	0x0880:  4b6c cedb df98 6c81 d896 ed2a 353e c1f0  Kl....l....*5>..
	0x0890:  44d1 f148 8f97 2c72 6915 21a6 8b14 e5d6  D..H..,ri.!.....
	0x08a0:  a4c9 5ede a6e2 9260 92ad 23ec 771a 1134  ..^....`..#.w..4
	0x08b0:  80d5 e550 ace8 d104 d1ee 313b 1661 974c  ...P......1;.a.L
	0x08c0:  63d2 83cb 1606 fe53 d0e0 5338 1406 7ab9  c......S..S8..z.
	0x08d0:  1eab 5e30 0a78 f0ff 478f ef75 522d b4f5  ..^0.x..G..uR-..
	0x08e0:  c85f ff35 8995 6670 5934 f2c2 236c 0d34  ._.5..fpY4..#l.4
	0x08f0:  eef2 3c5a 4a89 8268 2607 708d bfb7 84b5  ..<ZJ..h&.p.....
	0x0900:  43a3 eac5 9a0c 8ce6 d5b7 093b afd3 0f60  C..........;...`
	0x0910:  638a 9d17 02c5 c933 9a4f 2ef4 78c5 ee77  c......3.O..x..w
	0x0920:  3009 bbb5 b9c2 798b a4df 8813 6781 1d4c  0.....y.....g..L
	0x0930:  bc3c e7da 1341 4c76 b180 9188 eff3 49a7  .<...ALv......I.
	0x0940:  46dc 732b 2a0b 2327 6959 5dd3 b661 788a  F.s+*.#'iY]..ax.
	0x0950:  27db 8cc6 f854 ed3f af0e 3031 11b5 efba  '....T.?..01....
	0x0960:  8a56 4d3e 9954 e5ee c42f 537c d7bd f656  .VM>.T.../S|...V
	0x0970:  be9d c2b8 c262 5b83 b0a4 a8a0 a25c 4be7  .....b[......\K.
	0x0980:  5037 b82b 5190 d208 7197 09cc 12f6 590c  P7.+Q...q.....Y.
	0x0990:  34bd f73f 8f7e cb17 9b33 c1ae e73b 41d6  4..?.~...3...;A.
	0x09a0:  6561 55d2 bc54 6564 480e 06e1 fade 2853  eaU..TedH.....(S
	0x09b0:  ffe8 1e2b 21e2 bfdb ddb3 23a1 6561 eb84  ...+!.....#.ea..
	0x09c0:  d5fa 46a3 5b02 507f 50ed 9be0 17b8 1435  ..F.[.P.P......5
	0x09d0:  ec5b 2a3a 3683 2c0f 0506 e6fd 2b05 305d  .[*:6.,.....+.0]
	0x09e0:  e9fa 385b 23ed 3665 9747 7386 2741 108b  ..8[#.6e.Gs.'A..
	0x09f0:  32c7 2b80 989b ad38 1700 68d5 34be b900  2.+....8..h.4...
	0x0a00:  7a6b 3beb 6972 a333 2d4d 0720 d59f 8673  zk;.ir.3-M.....s
	0x0a10:  16ec 13a3 20ad 39d1 d807 7e10 ecf8 4da7  ......9...~...M.
	0x0a20:  616a 6e62 caf3 0757 27df 92a7 7777 5134  ajnb...W'...wwQ4
	0x0a30:  5a59 9bf9 ed63 37d0 d3db efbe 79e4 fe3d  ZY...c7.....y..=
	0x0a40:  7ce7 4b4a 95e7 ad19 4592 f19c 4aa6 acb4  |.KJ....E...J...
	0x0a50:  70c8 cf7c c595 0575 1791 6440 1965 67d1  p..|...u..d@.eg.
	0x0a60:  f8bf 9ab5 0f71 415d 0e4c 297a 1dc1 3f51  .....qA].L)z..?Q
	0x0a70:  df58 2e51 e985 f2f6 de23 b55c 340d a18b  .X.Q.....#.\4...
	0x0a80:  7458 fdf9 79a1 6e77 3d55 f79a b269 61e4  tX..y.nw=U...ia.
	0x0a90:  4ed3 c5d5 eb92 44bf b2f3 dafb 4e27 61b4  N.....D.....N'a.
	0x0aa0:  d69d 1276 effa 36e8 f4a6 ff26 56b5 fe46  ...v..6....&V..F
	0x0ab0:  b703 d74d 997c c22a 5068 7eec 7d77 82ec  ...M.|.*Ph~.}w..
	0x0ac0:  351d 96de 14f7 9dc1 ac39 b23a 5c7e 6981  5........9.:\~i.
	0x0ad0:  2aa5 49a4 c057 595d 1387 cda9 c427 4c86  *.I..WY].....'L.
	0x0ae0:  7672 03e7 9c39 30d5 b9ea 0893 66e6 3047  vr...90.....f.0G
	0x0af0:  cece 3b32 3490 d79d 1e46 515d 9ae4 ad04  ..;24....FQ]....
	0x0b00:  2736 8415 d79c ac4a a4f4 0f76 8fdb 0302  '6.....J...v....
	0x0b10:  32f2 442f 09a9 8f21 5ed2 a1fa 09d3 9ebd  2.D/...!^.......
	0x0b20:  7567 4e28 e905 53db 8f44 6010 1edb 2eba  ugN(..S..D`.....
	0x0b30:  56e1 d54a 5a8c b0da 9385 acb3 445c 0fbb  V..JZ.......D\..
	0x0b40:  c4a2 317c 4dd0 9ef1 c069 2f33 b3c7 7228  ..1|M....i/3..r(
	0x0b50:  5081 39c3 5316 d2c0 6936 2e39 c1bf 6ffc  P.9.S...i6.9..o.
	0x0b60:  70ba da17 420b 9cc7 6afc 7055 6ceb 4328  p...B...j.pUl.C(
	0x0b70:  c046 b223 ec57 2038 444c 0fce fd0b 370d  .F.#.W.8DL....7.
	0x0b80:  510b fe3c d449 8d39 58fb 640a b3df c736  Q..<.I.9X.d....6
	0x0b90:  9f13 a646 09e4 2fdf 8e19 96ec b8d9 4907  ...F../.......I.
	0x0ba0:  5cab 342e ce1d 982b 9987 7f67 2f06 b57c  \.4....+...g/..|
	0x0bb0:  8c3f ec80 3ce5                           .?..<.
18:43:24.174055 IP lamponubuntu2004-s-1vcpu-1gb-tor1-01.57535 > 67.207.67.2.domain: 42255+ [1au] PTR? 2.67.207.67.in-addr.arpa. (53)
	0x0000:  fe00 0000 0101 4614 0054 0c50 0800 4500  ......F..T.P..E.
	0x0010:  0051 dd5c 4000 4011 1436 9fcb 226d 43cf  .Q.\@.@..6.."mC.
	0x0020:  4302 e0bf 0035 003d 4958 a50f 0100 0001  C....5.=IX......
	0x0030:  0000 0000 0001 0132 0236 3703 3230 3702  .......2.67.207.
	0x0040:  3637 0769 6e2d 6164 6472 0461 7270 6100  67.in-addr.arpa.
	0x0050:  000c 0001 0000 2902 0000 0000 0000 00    ......)........
18:43:24.174305 IP lamponubuntu2004-s-1vcpu-1gb-tor1-01.36943 > 67.207.67.2.domain: 28205+ [1au] PTR? 2.67.207.67.in-addr.arpa. (53)
	0x0000:  fe00 0000 0101 4614 0054 0c50 0800 4500  ......F..T.P..E.
	0x0010:  0051 dd5d 4000 4011 1435 9fcb 226d 43cf  .Q.]@.@..5.."mC.
	0x0020:  4302 904f 0035 003d 4958 6e2d 0100 0001  C..O.5.=IXn-....
	0x0030:  0000 0000 0001 0132 0236 3703 3230 3702  .......2.67.207.
	0x0040:  3637 0769 6e2d 6164 6472 0461 7270 6100  67.in-addr.arpa.
	0x0050:  000c 0001 0000 2902 0000 0000 0000 00    ......)........
18:43:24.174439 IP 67.207.67.2.domain > lamponubuntu2004-s-1vcpu-1gb-tor1-01.57535: 42255 NXDomain 0/1/1 (120)
	0x0000:  4614 0054 0c50 fe00 0000 0101 0800 4500  F..T.P........E.
	0x0010:  0094 8832 4000 3f11 6a1d 43cf 4302 9fcb  ...2@.?.j.C.C...
	0x0020:  226d 0035 e0bf 0080 4c71 a50f 8183 0001  "m.5....Lq......
	0x0030:  0000 0001 0001 0132 0236 3703 3230 3702  .......2.67.207.
	0x0040:  3637 0769 6e2d 6164 6472 0461 7270 6100  67.in-addr.arpa.
	0x0050:  000c 0001 c00e 0006 0001 0000 064c 0037  .............L.7
	0x0060:  036e 7331 0c64 6967 6974 616c 6f63 6561  .ns1.digitalocea
	0x0070:  6e03 636f 6d00 0a68 6f73 746d 6173 7465  n.com..hostmaste
	0x0080:  72c0 0e59 aacc 2000 002a 3000 000e 1000  r..Y.....*0.....
	0x0090:  093a 8000 0007 0800 0029 0200 0000 0000  .:.......)......
	0x00a0:  0000                                     ..
18:43:24.174578 IP 67.207.67.2.domain > lamponubuntu2004-s-1vcpu-1gb-tor1-01.36943: 28205 NXDomain 0/1/1 (120)
	0x0000:  4614 0054 0c50 fe00 0000 0101 0800 4500  F..T.P........E.
	0x0010:  0094 8833 4000 3f11 6a1c 43cf 4302 9fcb  ...3@.?.j.C.C...
	0x0020:  226d 0035 904f 0080 d3c3 6e2d 8183 0001  "m.5.O....n-....
	0x0030:  0000 0001 0001 0132 0236 3703 3230 3702  .......2.67.207.
	0x0040:  3637 0769 6e2d 6164 6472 0461 7270 6100  67.in-addr.arpa.
	0x0050:  000c 0001 c00e 0006 0001 0000 064c 0037  .............L.7
	0x0060:  036e 7331 0c64 6967 6974 616c 6f63 6561  .ns1.digitalocea
	0x0070:  6e03 636f 6d00 0a68 6f73 746d 6173 7465  n.com..hostmaste
	0x0080:  72c0 0e59 aacc 2000 002a 3000 000e 1000  r..Y.....*0.....
	0x0090:  093a 8000 0007 0800 0029 0200 0000 0000  .:.......)......
	0x00a0:  0000                                     ..
18:43:24.174650 IP lamponubuntu2004-s-1vcpu-1gb-tor1-01.39090 > 67.207.67.2.domain: 33071+ [1au] PTR? 2.67.207.67.in-addr.arpa. (53)
	0x0000:  fe00 0000 0101 4614 0054 0c50 0800 4500  ......F..T.P..E.
	0x0010:  0051 dd5e 4000 4011 1434 9fcb 226d 43cf  .Q.^@.@..4.."mC.
	0x0020:  4302 98b2 0035 003d 4958 812f 0100 0001  C....5.=IX./....
	0x0030:  0000 0000 0001 0132 0236 3703 3230 3702  .......2.67.207.
	0x0040:  3637 0769 6e2d 6164 6472 0461 7270 6100  67.in-addr.arpa.
	0x0050:  000c 0001 0000 2902 0000 0000 0000 00    ......)........
18:43:24.174919 IP lamponubuntu2004-s-1vcpu-1gb-tor1-01.57535 > 67.207.67.2.domain: 42255+ PTR? 2.67.207.67.in-addr.arpa. (42)
	0x0000:  fe00 0000 0101 4614 0054 0c50 0800 4500  ......F..T.P..E.
	0x0010:  0046 dd5f 4000 4011 143e 9fcb 226d 43cf  .F._@.@..>.."mC.
	0x0020:  4302 e0bf 0035 0032 494d a50f 0100 0001  C....5.2IM......
	0x0030:  0000 0000 0000 0132 0236 3703 3230 3702  .......2.67.207.
	0x0040:  3637 0769 6e2d 6164 6472 0461 7270 6100  67.in-addr.arpa.
	0x0050:  000c 0001                                ....
18:43:24.175017 IP 67.207.67.2.domain > lamponubuntu2004-s-1vcpu-1gb-tor1-01.39090: 33071 NXDomain 0/1/1 (120)
	0x0000:  4614 0054 0c50 fe00 0000 0101 0800 4500  F..T.P........E.
	0x0010:  0094 8834 4000 3f11 6a1b 43cf 4302 9fcb  ...4@.?.j.C.C...
	0x0020:  226d 0035 98b2 0080 b85e 812f 8183 0001  "m.5.....^./....
	0x0030:  0000 0001 0001 0132 0236 3703 3230 3702  .......2.67.207.
	0x0040:  3637 0769 6e2d 6164 6472 0461 7270 6100  67.in-addr.arpa.
	0x0050:  000c 0001 c00e 0006 0001 0000 064c 0037  .............L.7
	0x0060:  036e 7331 0c64 6967 6974 616c 6f63 6561  .ns1.digitalocea
	0x0070:  6e03 636f 6d00 0a68 6f73 746d 6173 7465  n.com..hostmaste
	0x0080:  72c0 0e59 aacc 2000 002a 3000 000e 1000  r..Y.....*0.....
	0x0090:  093a 8000 0007 0800 0029 0200 0000 0000  .:.......)......
	0x00a0:  0000                                     ..
18:43:24.175103 IP lamponubuntu2004-s-1vcpu-1gb-tor1-01.36943 > 67.207.67.2.domain: 28205+ PTR? 2.67.207.67.in-addr.arpa. (42)
	0x0000:  fe00 0000 0101 4614 0054 0c50 0800 4500  ......F..T.P..E.
	0x0010:  0046 dd60 4000 4011 143d 9fcb 226d 43cf  .F.`@.@..=.."mC.
	0x0020:  4302 904f 0035 0032 494d 6e2d 0100 0001  C..O.5.2IMn-....
	0x0030:  0000 0000 0000 0132 0236 3703 3230 3702  .......2.67.207.
	0x0040:  3637 0769 6e2d 6164 6472 0461 7270 6100  67.in-addr.arpa.
	0x0050:  000c 0001                                ....
18:43:24.175138 IP 67.207.67.2.domain > lamponubuntu2004-s-1vcpu-1gb-tor1-01.57535: 42255 NXDomain 0/1/0 (109)
	0x0000:  4614 0054 0c50 fe00 0000 0101 0800 4500  F..T.P........E.
	0x0010:  0089 8835 4000 3f11 6a25 43cf 4302 9fcb  ...5@.?.j%C.C...
	0x0020:  226d 0035 e0bf 0075 519b a50f 8183 0001  "m.5...uQ.......
	0x0030:  0000 0001 0000 0132 0236 3703 3230 3702  .......2.67.207.
	0x0040:  3637 0769 6e2d 6164 6472 0461 7270 6100  67.in-addr.arpa.
	0x0050:  000c 0001 c00e 0006 0001 0000 0362 0037  .............b.7
	0x0060:  036e 7331 0c64 6967 6974 616c 6f63 6561  .ns1.digitalocea
	0x0070:  6e03 636f 6d00 0a68 6f73 746d 6173 7465  n.com..hostmaste
	0x0080:  72c0 0e59 aacc 2000 002a 3000 000e 1000  r..Y.....*0.....
	0x0090:  093a 8000 0007 08                        .:.....
18:43:24.175220 IP lamponubuntu2004-s-1vcpu-1gb-tor1-01.39090 > 67.207.67.2.domain: 33071+ PTR? 2.67.207.67.in-addr.arpa. (42)
	0x0000:  fe00 0000 0101 4614 0054 0c50 0800 4500  ......F..T.P..E.
	0x0010:  0046 dd61 4000 4011 143c 9fcb 226d 43cf  .F.a@.@..<.."mC.
	0x0020:  4302 98b2 0035 0032 494d 812f 0100 0001  C....5.2IM./....
	0x0030:  0000 0000 0000 0132 0236 3703 3230 3702  .......2.67.207.
	0x0040:  3637 0769 6e2d 6164 6472 0461 7270 6100  67.in-addr.arpa.
	0x0050:  000c 0001                                ....
18:43:24.177697 IP bras-base-toroon0560w-grc-73-184-146-17-164.dsl.bell.ca.36152 > lamponubuntu2004-s-1vcpu-1gb-tor1-01.ssh: Flags [.], ack 3220, win 7535, options [nop,nop,TS val 3768194289 ecr 844070789], length 0
	0x0000:  4614 0054 0c50 fe00 0000 0101 0800 4500  F..T.P........E.
	0x0010:  0034 c6cb 4000 3506 f289 b892 11a4 9fcb  .4..@.5.........
	0x0020:  226d 8d38 0016 5fef 82a9 e093 b241 8010  "m.8.._......A..
	0x0030:  1d6f 22c2 0000 0101 080a e09a 14f1 324f  .o"...........2O
	0x0040:  7f85                                     ..
18:43:24.177937 IP lamponubuntu2004-s-1vcpu-1gb-tor1-01.ssh > bras-base-toroon0560w-grc-73-184-146-17-164.dsl.bell.ca.36152: Flags [P.], seq 3220:7352, ack 1, win 501, options [nop,nop,TS val 844070794 ecr 3768194289], length 4132
	0x0000:  fe00 0000 0101 4614 0054 0c50 0800 4510  ......F..T.P..E.
	0x0010:  1058 68ef 4000 4006 3532 9fcb 226d b892  .Xh.@.@.52.."m..
	0x0020:  11a4 0016 8d38 e093 b241 5fef 82a9 8018  .....8...A_.....
	0x0030:  01f5 9cb9 0000 0101 080a 324f 7f8a e09a  ..........2O....
	0x0040:  14f1 09bc 39bb 2039 a81e 99e6 cd9e dae1  ....9..9........
	0x0050:  ace8 95ef 83be 9cf6 0836 f16c 3378 2ef3  .........6.l3x..
	0x0060:  e73e 6ec0 5373 ce6a 64b9 9b40 b34d dba9  .>n.Ss.jd..@.M..
	0x0070:  f0c8 91c5 e9f3 7ceb 4436 0d77 0b1d 5a1b  ......|.D6.w..Z.
	0x0080:  9c02 1177 048b 1622 8520 185a 03ca c6e3  ...w..."...Z....
	0x0090:  d836 e89e ac6f 1b72 006a 845a 5564 20d2  .6...o.r.j.ZUd..
	0x00a0:  303d 0569 88e9 9d18 bdcc d888 1a8d b9ab  0=.i............
	0x00b0:  1725 e81d b1c2 8989 19e1 278a 5081 9def  .%........'.P...
	0x00c0:  bc6f a994 b9ad 0e97 bd3a c639 cca7 77c0  .o.......:.9..w.
	0x00d0:  df73 0b96 8741 dd55 ce12 3c9a 40a3 a076  .s...A.U..<.@..v
	0x00e0:  8dc6 b2b2 4f7d 431d 0cff f229 5ca9 6d57  ....O}C....)\.mW
	0x00f0:  632b 2c0f 5a78 6d65 4d0c 5937 88d4 2796  c+,.ZxmeM.Y7..'.
	0x0100:  01a7 a8bc 2952 e3d2 8353 c306 db35 06e6  ....)R...S...5..
	0x0110:  6023 e06e ba6e 7181 3d1c 0e30 d018 bc75  `#.n.nq.=..0...u
	0x0120:  83f3 6c21 12f7 77f3 f0e2 b8a2 8f09 d602  ..l!..w.........
	0x0130:  70a5 e9a6 8071 fa15 3837 1f5d 92fe 97bb  p....q..87.]....
	0x0140:  9361 be9a aa5d fa0a 66a5 6bfc 088d b55b  .a...]..f.k....[
	0x0150:  b9b1 36a1 4a53 6bc5 3993 2655 1c35 1d3e  ..6.JSk.9.&U.5.>
	0x0160:  14e5 3c52 b1b0 e247 021c 331f b004 1b8e  ..<R...G..3.....
	0x0170:  6034 3d80 40a2 3ed1 d2ae 7453 2362 535b  `4=.@.>...tS#bS[
	0x0180:  374b b704 25a7 618a 766f 7673 33e4 9456  7K..%.a.vovs3..V
	0x0190:  fe1c 3550 f83d 6fc5 fc91 fb19 48b8 00c7  ..5P.=o.....H...
	0x01a0:  c036 56a3 7f79 3eaf 3a01 86d5 56c5 0c41  .6V..y>.:...V..A
	0x01b0:  96c9 5b43 db44 8478 6549 002a 3bc2 92fa  ..[C.D.xeI.*;...
	0x01c0:  fb94 c2c0 3384 a413 6d3e e9b0 c271 5c4e  ....3...m>...q\N
	0x01d0:  b5c5 e999 4ba2 e853 02fd e044 3ffd a12f  ....K..S...D?../
	0x01e0:  ae99 654b a4fb f9e3 0348 1520 082e afb1  ..eK.....H......
	0x01f0:  391d 29aa f7db 5034 8570 5306 8d2d c359  9.)...P4.pS..-.Y
	0x0200:  2428 a9d1 18e1 aa1b aa04 d4e2 e29c c2cb  $(..............
	0x0210:  66f6 5ef9 5b59 f7a3 a6cc 591e 93d5 b094  f.^.[Y....Y.....
	0x0220:  74b7 d9fb 9bcd 01c1 4754 f46f c2d7 9d2a  t.......GT.o...*
	0x0230:  6174 3406 0694 dafa 42e5 cfa7 5e71 6e28  at4.....B...^qn(
	0x0240:  9ef8 2263 6be1 2711 8456 9041 9cd6 22c2  .."ck.'..V.A..".
	0x0250:  931e 4b1b 7851 ec5a 12f3 0e66 f5fe ff44  ..K.xQ.Z...f...D
	0x0260:  8f82 b176 cfd2 7baf 8c6d 29c4 f027 0807  ...v..{..m)..'..
	0x0270:  9603 9efa c67a c1a9 efc1 376a 3398 45ff  .....z....7j3.E.
	0x0280:  0a88 9fee 8124 7aee 2f93 ca6d aa0a 14e9  .....$z./..m....
	0x0290:  7df0 ab43 22b7 015c 565d 4de3 a02c de38  }..C"..\V]M..,.8
	0x02a0:  59d6 6e5f 48a2 2bc3 e36b 1870 d9ff 3c60  Y.n_H.+..k.p..<`
	0x02b0:  c596 1580 a2b5 ea4d 8ddd 2c28 ff69 ca59  .......M..,(.i.Y
	0x02c0:  786f b337 c5d7 fff8 9652 2af2 35e9 cb1e  xo.7.....R*.5...
	0x02d0:  704d 07bf f8c3 ee63 56b4 877d 513e 9b2c  pM.....cV..}Q>.,
	0x02e0:  0dd4 1b6d b489 73c4 5275 60f9 0349 20c2  ...m..s.Ru`..I..
	0x02f0:  554a 2641 4ec0 6717 79d9 6806 c146 f57b  UJ&AN.g.y.h..F.{
	0x0300:  e86b 1f6d 3e08 efc7 d98a 7252 10d5 20db  .k.m>.....rR....
	0x0310:  6ffa e4e8 ae14 fd33 6021 f719 2511 0022  o......3`!..%.."
	0x0320:  de6e f35f 5f5c 415b 1a39 33c4 8b75 d661  .n.__\A[.93..u.a
	0x0330:  37d3 f954 1641 c988 9127 5901 76de 9d06  7..T.A...'Y.v...
	0x0340:  0274 3869 ea65 951a 4446 53f3 4060 cfc7  .t8i.e..DFS.@`..
	0x0350:  c829 abcf 3eb0 51d3 156e baac bb73 db41  .)..>.Q..n...s.A
	0x0360:  fa50 5dab dd0a 6d60 4b09 0c1a 578c 330e  .P]...m`K...W.3.
	0x0370:  ee85 35e1 a4b9 75af 1770 bbef 33cf 72ed  ..5...u..p..3.r.
	0x0380:  27f3 25df 0cd9 1cbf b9fa 4db3 5ea7 884a  '.%.......M.^..J
	0x0390:  84a3 8682 9b0f 354c ab32 71c4 ee6b a16c  ......5L.2q..k.l
	0x03a0:  0bf2 21cd ffc6 c346 421e 715f 8b75 e330  ..!....FB.q_.u.0
	0x03b0:  ea79 727e 465f 4184 5e4d 691e f72f c12b  .yr~F_A.^Mi../.+
	0x03c0:  e747 08b0 c668 88f9 f4cc a9a2 a5c4 751f  .G...h........u.
	0x03d0:  7b06 4674 2085 9902 a01c 6ba2 e2dc 6df2  {.Ft......k...m.
	0x03e0:  69a5 ebec 434c cd1d d3dc 0101 b68d cdd8  i...CL..........
	0x03f0:  ea5e 46dd 5569 388a 0f41 cee9 489f e65c  .^F.Ui8..A..H..\
	0x0400:  d134 f992 b831 e8a7 ffc7 bf5a d2ca 54bc  .4...1.....Z..T.
	0x0410:  2a7e ed9b 561e 0be7 7abe 3b8d b140 4e4f  *~..V...z.;..@NO
	0x0420:  8b95 fa94 6095 854f 2477 6d97 bfee c571  ....`..O$wm....q
	0x0430:  8993 cdbc 2a4e 6212 e8a8 3a7e 97d9 e7aa  ....*Nb...:~....
	0x0440:  e2d2 e3fa afc8 5b09 3fa0 f81d f9bb 5120  ......[.?.....Q.
	0x0450:  b57a 01d5 05a7 8f5c a747 c69c 8b72 57c0  .z.....\.G...rW.
	0x0460:  47b0 c6ae 5ffa 251a c985 6031 7b15 b657  G..._.%...`1{..W
	0x0470:  6af7 2d06 93d0 131e 3f97 35af d336 f5ec  j.-.....?.5..6..
	0x0480:  0222 92e2 8ae8 11f0 1963 f0f8 ce54 aa6b  .".......c...T.k
	0x0490:  1651 29f8 1f17 693e 56f8 346e 95ea 07cf  .Q)...i>V.4n....
	0x04a0:  0ceb 6ffd 1b82 1703 1205 cfd0 86be 2764  ..o...........'d
	0x04b0:  ef40 e5b9 859d 2abb 9975 f78f 3a3f a2e5  .@....*..u..:?..
	0x04c0:  24ff 8d10 ed07 8247 d9cf 88a7 f2ed 5bc7  $......G......[.
	0x04d0:  2a31 0803 df87 680f 2446 52c7 237b 2ae2  *1....h.$FR.#{*.
	0x04e0:  f777 7a15 d838 9049 9737 b45b 035d 6871  .wz..8.I.7.[.]hq
	0x04f0:  75cc fc84 7d87 1c0c 2a7c 33ca 3ee7 8304  u...}...*|3.>...
	0x0500:  baea 8b02 3df4 7ae1 b314 9503 3559 73b0  ....=.z.....5Ys.
	0x0510:  2b22 4e2d ef7c 3f6b a835 e964 88ec 4091  +"N-.|?k.5.d..@.
	0x0520:  7f4d e6ed 5a91 4208 ed5b b20d e09a 5730  .M..Z.B..[....W0
	0x0530:  56bd 0293 e0eb 1aba bcf2 2032 6c38 69a8  V..........2l8i.
	0x0540:  0bc2 fd80 6d7b 7c67 2250 f2bf 087b 4fa2  ....m{|g"P...{O.
	0x0550:  d87a 02ab 8a0c fa54 b076 ddc2 afc0 ac20  .z.....T.v......
	0x0560:  ad66 9125 ab69 885e 1f36 063e 4ced f4af  .f.%.i.^.6.>L...
	0x0570:  2426 593f d218 53e9 2ce0 d70b 8a84 a81d  $&Y?..S.,.......
	0x0580:  4dad e133 814e 8903 4989 7f9b 800c 2fad  M..3.N..I...../.
	0x0590:  5b94 b9b5 c264 52d2 634b c3c0 38c7 675b  [....dR.cK..8.g[
	0x05a0:  02e4 842f ceb9 052c 910e c4a8 3363 9a2e  .../...,....3c..
	0x05b0:  ccab 82ee ec76 7a7f e392 46ee f723 0673  .....vz...F..#.s
	0x05c0:  231a 465b 48fa c782 d05d e1cb e9b8 8b8f  #.F[H....]......
	0x05d0:  c708 5187 1155 8c4d 068a 86e2 5091 5f16  ..Q..U.M....P._.
	0x05e0:  cfc3 601d af31 e88a 92be 9d96 ffc0 e45d  ..`..1.........]
	0x05f0:  0373 93d3 69d5 0a94 8e05 08dc 7b02 3160  .s..i.......{.1`
	0x0600:  576d db9e ad70 5f84 196c 7913 de20 c971  Wm...p_..ly....q
	0x0610:  1291 d41e adee 11a5 4da0 8c40 4f70 f7bd  ........M..@Op..
	0x0620:  c7e1 8c39 442c 920b 24aa d011 9844 d52c  ...9D,..$....D.,
	0x0630:  aa31 e62a ce41 d18b f184 09f3 ad12 8ac8  .1.*.A..........
	0x0640:  0028 4024 9589 0997 254b a3a3 69d5 4208  .(@$....%K..i.B.
	0x0650:  e937 0f0b 7f60 9291 3075 46a4 2028 d2b9  .7...`..0uF..(..
^Z
[9]+  Stopped                 tcpdump -XX -i eth0
root@lamponubuntu2004-s-1vcpu-1gb-tor1-01:~# 

